:020000040800F2
:1000000088BE0020310200089B380008FF3100083C
:10001000973800088D1A0008313C000800000000E5
:10002000000000000000000000000000CD390008C2
:10003000911A000800000000470200084902000869
:100040004B0200084B0200084B0200084B0200085C
:100050004B0200084B0200084B0200084B0200084C
:100060004B0200084B0200084B0200084B0200083C
:100070004B0200084B0200084B0200084B0200082C
:100080004B0200084B0200084B0200084B0200081C
:100090004B0200084B0200084B0200084B0200080C
:1000A0004B0200084B0200084B0200084B020008FC
:1000B0004B0200084B0200084B0200084B020008EC
:1000C0004B0200084B0200084B0200084B020008DC
:1000D0004B020008213C00084B0200084B020008BC
:1000E0004B0200084B0200084B0200084B020008BC
:1000F0004B0200084B0200084B0200084B020008AC
:100100004B0200084B0200084B0200084B0200089B
:100110004B0200084B0200084B0200084B0200088B
:100120004B0200084B0200084B0200084B0200087B
:1001300000F002F800F052F80AA090E8000C8244A7
:100140008344AAF10107DA4501D100F047F8AFF284
:10015000090EBAE80F0013F0010F18BFFB1A43F0A5
:100160000103184788D00000A8D00000103A24BF2F
:1001700078C878C1FAD8520724BF30C830C144BF0C
:1001800004680C607047000000230024002500264E
:10019000103A28BF78C1FBD8520728BF30C148BFEA
:1001A0000B607047662909F03287642900F0F080FF
:1001B000782900F02981732900F0BF85002070475D
:1001C0001FB500F0FEF900F0CFFD04000020002173
:1001D00009F05EFBE0601FBD10B510BD00F0C8FE69
:1001E0001146FFF7EDFF08F01DFE00F0E6FE03B438
:1001F000FFF7F2FF03BC03F054FD00000B49D1F8F8
:1002000000C04A685CF8043B1068184442F8040BCC
:100210008C4528BFA1F1DC0C8A4228BFA1F1DC0289
:10022000C1F800C04A6020F0004070471CB80020B0
:100230000948804709480047FEE7FEE7FEE7FEE77A
:10024000FEE7FEE7FEE7FEE7FEE7FEE704480549B6
:10025000054A064B70470000CF39000831010008FD
:1002600088B8002088BE002088BA002088BA002004
:10027000704700000FB4044910B503AA029800F0BB
:1002800061FD10BC5DF814FB8C0000200FB41CB5A0
:10029000084B06AA7B4469460090059800F01BFDB8
:1002A00004460020694600F029FD20461CBC5DF88C
:1002B00014FB0000650A00000FB47CB50C0009AA0D
:1002C000009001D02044401E084B7B4469460190B9
:1002D000089800F000FD05461CB10020694600F0BA
:1002E0000DFD28467CBC5DF814FB0000390A0000B7
:1002F00070B5044685690068C10601D5302600E066
:100300002026C00707D070BDD4E9012130469047B0
:10031000206A401C20626D1EF6D570BD70B5044683
:1003200085690078C00707D170BDD4E9012120207C
:100330009047206A401C20626D1EF6D570BD70B5D6
:100340000C460546012A05D02878800600D5EA69C2
:10035000002302E0012305E05B1C934202D2E05C33
:100360000028F9D1A869E618C01AA861286A1844BB
:1003700028622846FFF7BCFF04E0D5E9012114F804
:10038000010B9047B442F8D32846FFF7C7FF70BD72
:100390002DE9F0410646002410687529314616A55E
:1003A00010D0AFF30080002802DA404213A507E026
:1003B00031688A0701D512A502E0490704D511A5C5
:1003C000012401E0AFF3008000210A2206F1240796
:1003D00009E0B0FBF2FCB0FBF2F302FB1C00303092
:1003E00078541846491C0028F3D123462A46304643
:1003F000BDE8F04100F001BA000000002D0000004F
:100400002B0000002000000070B504460D46214678
:100410001068AFF300802188090502D50F4A7A449D
:1004200002E00E4A7A440E32002104F1240305E072
:1004300000F00F060009965D5E54491C0028F7D1B4
:1004400020780023000704D5702D02D009B10223C3
:1004500011322046BDE8704000F0CFB962CC0000F8
:100460002DE9F05F894604464FF0000ADFF824B119
:10047000FB44C0F820A02046E168884700287DD0D2
:10048000252806D0D4E901219047206A401C20622B
:10049000F1E700255F462046E168884720280646A8
:1004A00007DB312E05D2B81910F8200C08B105432E
:1004B000F1E7A80701D525F00405C4F81CA0002722
:1004C000C4F818A02A2E09D0304603F0E3FB38B355
:1004D00004EB8708303EC8F8186019E059F8041B8F
:1004E000204604EB87029161E1688847012F0646A8
:1004F00018D1E069002820DA25F020051DE0D8F8A1
:10050000180000EB800006EB40003038C8F81800F7
:100510002046E1688847064603F0BCFB0028EED180
:10052000012F0AD02E2E08D12046E16888477F1C73
:100530000646022F45F02005C4DBA069002803DA37
:10054000404245F00105A061E80701D025F0100503
:10055000A6B1A6F14100192802D8203645F400655D
:100560004A463146204625604D46FFF71BFE60B1E6
:10057000012807D0ED1D25F0070000E007E000F19D
:10058000080978E705F1040975E730467AE7206A3B
:10059000BDE8F09F38CC00000B4910B5A1F17C02FA
:1005A0000A4CC2E93712372106E000EB104342F84B
:1005B0002130074B00FB03400B1EA1F10101F4DCCD
:1005C00010BD0120E8E70000BCB70020E119D666A5
:1005D000CD0D010040EA0103024630B59B0710D162
:1005E0004FF0013400E008C208C91D1B9D4315EA05
:1005F000C41FF8D013F0FF0102F8011B0DD01B0A35
:10060000F8E711F8013B002B02F8013B05D011F887
:10061000013B002B02F8013BF3D130BD10B5431C68
:1006200002E010F8011B71B18107FAD14FF00132DD
:1006300002C88C1A8C4314EAC211F9D0C01A0A06F7
:1006400003D0C01E10BDC01A10BD0A0401D0801E08
:1006500010BD0902FCD0401E10BD421E12F8013F21
:10066000002BFBD111F8013B002B02F8013BF9D123
:100670007047032A40F2308010F0030C00F0158020
:1006800011F8013BBCF1020F624498BF11F801CB95
:1006900000F8013B38BF11F8013BA2F1040298BFFA
:1006A00000F801CB38BF00F8013B11F0030300F064
:1006B0002580083AC0F0088051F8043B083A51F808
:1006C00004CBA0E80810F5E7121D5CBF51F8043B0D
:1006D00040F8043BAFF30080D20724BF11F8013B80
:1006E00011F801CB48BF11F8012B24BF00F8013BE2
:1006F00000F801CB48BF00F8012B704710B5203A35
:10070000C0F00B80B1E81850203AA0E81850B1E8CA
:100710001850A0E81850BFF4F5AF5FEA027C24BF80
:10072000B1E81850A0E8185044BF18C918C0BDE877
:1007300010405FEA827C24BF51F8043B40F8043B40
:1007400008BF7047D20728BF31F8023B48BF11F8F5
:10075000012B28BF20F8023B48BF00F8012B70474F
:100760004FF000020429C0F0128010F0030C00F0DA
:100770001B80CCF1040CBCF1020F18BF00F8012B58
:10078000A8BF20F8022BA1EB0C0100F00DB85FEA26
:10079000C17C24BF00F8012B00F8012B48BF00F8F2
:1007A000012B70474FF0000200B513469446964661
:1007B000203922BFA0E80C50A0E80C50B1F1200174
:1007C000BFF4F7AF090728BFA0E80C5048BF0CC022
:1007D0005DF804EB890028BF40F8042B08BF704780
:1007E00048BF20F8022B11F0804F18BF00F8012BF2
:1007F000704770477047704770472DE9F0470D46C6
:1008000099469246044600F124080168880604D5FA
:10081000E06921F01001216000E00120A84201DD23
:10082000471B00E00027A1697A1902EB0900081AAA
:10083000A0612078C00602D42046FFF759FD0026AB
:1008400008E0D4E901211AF806009047206A401C0C
:10085000761C20624E45F4DB2078C0060AD520467F
:10086000FFF746FD06E0D4E9012130209047206AD9
:10087000401C2062381EA7F10107F4DC07E0D4E930
:10088000012118F805009047206A401C2062281EAC
:10089000A5F10105F3DC2046FFF740FD20780006B6
:1008A00002D50220BDE8F0870120FBE770472DE963
:1008B000FF4F0C461E464FF0FF378BB0D2E90001C8
:1008C000DDF860800A908A46C1F30A5505B93D46B5
:1008D000002108464FF00000BAF1000F00F440007C
:1008E00005DA00EB80004FF4400101EA50004FEAC6
:1008F0009059B9F1010F00DDB9460A9850EA4A0053
:100900000ED044F61050A5F2FF3545432F14B8F130
:10091000000F1ED07542291E1EDDC9F100021CE029
:10092000B8F1010F4FF0000001D0302103E0F24395
:1009300005E02154401CB042FBDB30460022002180
:1009400021540B99C1F80880C1E900200FB0BDE81F
:10095000F08FBD1B6D1CDEE74A4600DA694206A82F
:1009600000F08CFA06AB93E8070003AB83E80700BE
:1009700050460A9900F06AFB8DE80700A0F5005088
:100980001F3800900398002D0ADD42F21F014A46ED
:100990000844002303A90390684600F0D3FD09E052
:1009A000A0F500504A461F38002303A9039068466B
:1009B00000F0DDFD8DE807000004000C03D04FF0CF
:1009C000FF30410800E01046B8F1000F03D00022CC
:1009D000009215461EE0751E05D400F0C9F93032AC
:1009E00062556D1EF9D5B3460122084302D000229C
:1009F0007F1C04E02078302801D100227F1E002ACD
:100A0000099784D01DE0112D07DA00F0B1F93032DA
:100A100062556D1C50EA0102F5D1084302D00098DE
:100A2000C8B10EE00021681E05E0235C625C6354DF
:100A30002254401E491C8142F7DBAB46A81B401ED6
:100A40000990002004F80B000B98099AC0F8088060
:100A5000C0E9002B7AE711264FF0000857E72DE98F
:100A6000F04F88460446D21D22F0070191B0D1E92B
:100A70000001CDE90A0103F0DDF802460B98C00F32
:100A800001D02D2007E02068810701D52B2002E04E
:100A9000202101EAC000032A099001D0072A05DBC2
:100AA00003464146204600F0A9F90BE12078800674
:100AB00001D5E06900E00620B8F1650F814606D057
:100AC000B8F1660F18D0B8F1670F70D131E000208F
:100AD000B9F1110F009001DB112301E009F10103CD
:100AE0000AAA01A90CA8FFF7E2FEDDE90C700026B6
:100AF00009F10105834647E001204B4600904FF085
:100B000000470AAA01A90CA8FFF7D1FEDDE90DB044
:100B10000C995D46002610B909F101000D18B9EBDA
:100B2000050003D4C0F1FF3609F10105A5EB09006A
:100B30002BE0B9F1010F01DA4FF001090020B9F102
:100B4000110F0090484601DD112300E003460AAA78
:100B500001A90CA8FFF7ABFEDDE90C704D4600269D
:100B60008346207800070AD4AB4500DA5D4601A829
:100B7000012D04DD411911F8011C302907D04F4522
:100B800002DA17F1040F04DA012082460FE06D1E2D
:100B9000EEE7002F02DCED1B3E4403E0781CA84288
:100BA00000DD7D1CB81B00F1010A4FF000472078E2
:100BB000000703D4AA4501DB4FF0FF3A0021B7F14B
:100BC000004F0DF143088DF8431024D002202B2351
:100BD000002F01DA7F422D230A21021EA0F101001D
:100BE00000DC5FB197FBF1FC97FBF1F201FB1C7C91
:100BF00017460CF1300C08F801CDEEE7A8F1010022
:100C000003702188090501D5452100E06521A0F187
:100C1000010800F8011C09980FA9A1EB0807FF1DA6
:100C200000B10120411901EBEA70A1693844081AAA
:100C3000401EA0612078C00602D42046FFF758FB72
:100C4000099828B1D4E901219047206A401C20620C
:100C50002078C00622D52046FFF74AFB1EE0002E72
:100C600004DBB34502DD01A8805D00E03020D4E95B
:100C700001219047206A401C2062761CAAF10100E5
:100C80005FEA000A0AD100F06FF8C0680168405CB2
:100C9000D4E901219047206A401C2062281EA5F15A
:100CA0000105DCDC07E0D4E9012118F8010B9047CD
:100CB000206A401C2062381EA7F10107F3DC2046A1
:100CC000FFF72CFB032011B041E6000001694A1C2C
:100CD00002610878704700B58FB0CDE9013100217D
:100CE000059105497944CDE9031011466846FFF79F
:100CF000B7FB0FB000BD0000E5FFFFFF0A6802F878
:100D0000010B0A607047D1E900239A4202D2531CBA
:100D10000B601070704710B5436913B1AFF30080DA
:100D200001E0FFF70CFB012010BD127800F1240157
:100D30000A7000224A700122EDE711684FF0FF327D
:100D4000E9E70000074B70B50D467B44FFF7C3FF92
:100D50000446284600F004F910B14FF0FF3070BD92
:100D6000204670BD3B4900000048704744B8002051
:100D700030B5B0F10A024FEA900E71F100034EEA6D
:100D8000817EB0EB0E0061EB91014FEA101E4EEA3E
:100D9000017E10EB0E0041EB11114FEA102E4EEACE
:100DA000016E10EB0E0041EB11214FEA104E4EEA9E
:100DB000014E10EB0E0041EB1141401841F10001D2
:100DC0004FEAD00040EA41704FEAD10110EB8005B4
:100DD0004FEA810444EA907444EB01046D1944EB3A
:100DE0000404521BA3414FF0000348BF0A3200D550
:100DF00030BD401C41F1000130BD00002DE9F04143
:100E00001F46044603260168072A01F4006004DB3C
:100E100008B116A505E016A503E008B115A500E088
:100E200015A521F010002060A069C01EA0610FB1BF
:100E3000401EA0612046FFF75BFA4FB1D4E90121C3
:100E400038469047206A401C2062C01C206206E0A1
:100E5000206AFAE7D4E9012115F8010B9047761EC4
:100E6000F8D22046FFF75AFABDE8F0814E414E0015
:100E70006E616E00494E4600696E66002DE9F047CE
:100E8000814616468AB0354878440DC88DE80D0075
:100E900032487844801C03AC0DC884E80D0041F64C
:100EA0009B300844372190FBF1F290FBF1F5A5F15E
:100EB000800501FB12041B3C02D56442012000E0C6
:100EC0000020DFF898A080460027FA44AAF1BE0A65
:100ED0000EE0E0070AD03246684607EB47010123DF
:100EE0000AEB810100F043FB8DE8070064107F1CD2
:100EF000002CEED1194F7F44AE3F19E0E80715D022
:100F000007EB04100DF1180A90E80E008AE80E00B5
:100F1000C068F04201D1981908903246012306A911
:100F200003A800F024FB03AB83E807006D10641CEA
:100F3000002DE3D14FF0010332466946B8F1000FAE
:100F400003A802D000F0FEFA01E000F010FBC9E9AE
:100F50000001C9F808200AB0BDE8F087B0C200005F
:100F6000007B00F0800070470048704724B80020E4
:100F70007546FFF7F9FFAE4605006946534620F077
:100F80000700854618B020B5FFF760F9BDE820409E
:100F90004FF000064FF000074FF000084FF0000B35
:100FA00021F00701AC46ACE8C009ACE8C009ACE8E8
:100FB000C009ACE8C0098D46704710B50446AFF3D0
:100FC00000802046BDE81040FFF711B94FF0013C0A
:100FD00050F8042B51F8043B9A4221D1A2EB0C03A8
:100FE000934313EACC1317D150F8042B51F8043B68
:100FF0009A4215D1A2EB0C03934313EACC130BD105
:1010000050F8042B51F8043B9A4209D1A2EB0C038F
:10101000934313EACC13DBD04FF00000704700BFBE
:10102000D01A01BAB1FA81F101F0180122FA01F0E7
:10103000CB40C1F12001DBB2C0B2C01A2CFA01F3DF
:10104000D11A914311EAC311E6D170475FEA400C0F
:1010500008BF91F0000F4FEA8C234FEAC12243EA08
:1010600051514FEA1C5018BF00F5F0404FEA3000D4
:1010700018BF41F000415FEA6C5C00F02980BCF1D0
:10108000FF3F08BF40F080407047130C06BF1204BA
:101090004FF0100C4FF0000C130E04BF12020CF1B5
:1010A000080C130F04BF12010CF1040C930F04BFC2
:1010B00092000CF1020CD30F04BF52000CF1010C92
:1010C00011464FF00002A0F11F00A0EB0C0070478A
:1010D00011F0004F08BF704731F000413FF4D5AF29
:1010E0000B0C06BF09044FF0100C4FF0000C0B0E58
:1010F00004BF09020CF1080C0B0F04BF09010CF12D
:10110000040C8B0F04BF89000CF1020CCB0F04BF41
:1011100049000CF1010CCCF12003A0EB0C0022FAE9
:1011200003F302FA0CF241EA030100F101007047F7
:1011300020F07F4C80EA030023F07F47ACEB0703ED
:1011400003F57C5300F0004003F1FF032DE98049D3
:101150004FEA154B09B44FEA144325EA0B4E24EA33
:1011600003480FF2042606EB132749083E785FEA8E
:10117000320203FB0667C7F5000707FB06F64FEAD6
:1011800054374FEAD64606F1020607FB066CCCF14F
:10119000005C4FEA1C472CEA074C07FB06F40CFBEB
:1011A00006F504EB15464FEA961634BF00204FF0C3
:1011B00000404FEAD13706FB07FC4FEA1C4C0CFB02
:1011C0000BF7D21B03FB0CF761EB07010CFB0EF7CF
:1011D000B0EB074072EB17420CFB08F734BFA2EBF1
:1011E0000742B2EB074261EB17414FEA0C444FEA6A
:1011F000910706FB07FC4FEA1C4C0CFB0BF7B0EB0E
:10120000C74072EB573203FB0CF734BFA2EBC74267
:10121000B2EBC74261EB57310CFB0EF7B0EBC700E6
:1012200072EB57720CFB08F734BFA2EBC702B2EBAC
:10123000C70261EB5771039F4FEA816141EA921146
:1012400004EBCC044FEAD1374FEA826206FB07FC7D
:1012500042EA90124FEA80604FEA1C4C0CFB0BF7FD
:10126000D21B03FB0CF761EB07010CFB0EF7B0EB95
:10127000074072EB17420CFB08F734BFA2EB0742A2
:10128000B2EB074261EB17414FEA8C554FEA9107E9
:1012900004EB9C2406FB07FC4FEA1C4C0CFB0BF7F1
:1012A000B0EBC74072EB573203FB0CF734BFA2EB35
:1012B000C742B2EBC74261EB57310CFB0EF7B0EB04
:1012C000C70072EB57720CFB08F734BFA2EBC702E2
:1012D000B2EBC70261EB577115EB4C254FEA816108
:1012E00041EA92114FEA82624FEAD13742EA901204
:1012F00006FB07FC44F100044FEA80604FEA1C4CF7
:101300000CFB0BF7D21B03FB0CF761EB07010CFB8B
:101310000EF7B0EB074072EB17420CFB08F734BF37
:10132000A2EB0742B2EB074261EB174115EB1C152C
:101330004FEA813141EA92414FEA823242EA9042D9
:101340004FEA80304FEA0C7644F1000448EA034348
:101350004EEA0B484FF0000EB2EB080C71EB03079E
:1013600024BF624639464EEB0E0E4FF0000B0018BC
:10137000524149414BEB0B0BB2EB080C71EB0307ED
:101380007BF1000B24BF624639464EEB0E0E4FF048
:10139000000B0018524149414BEB0B0BB2EB080C10
:1013A00071EB03077BF1000B24BF624639464EEB1D
:1013B0000E0E51EA020718BF46F0010616EB0E7634
:1013C00055F1000254F1000103D5BDE88901BDE8E3
:1013D0000088BDE88901BDE80048B619524141EBDB
:1013E0000101A3F10103704780807F7E7D7C7B7AC1
:1013F0007978777676757473727171706F6E6E6DC1
:101400006C6C6B6A6A696868676666656464636366
:1014100062616160605F5F5E5E5D5D5C5C5B5B5AEC
:101420005A59595858575756565555555454535359
:1014300052525251515050504F4F4F4E4E4D4D4DB4
:101440004C4C4C4B4B4B4A4A4A49494948484847FF
:10145000474747464646454545444444444343433D
:101460004342424242414141002B9C4630D47700E6
:101470002BD01CB54FEA370703B44FF010004FF0E4
:101480001001BAF1000F06D0BCF1000FDCBF40F034
:10149000080040F008014FF000000FBCBDE810400C
:1014A0000BF1010BBBF1010F08BF5FEA170722BF69
:1014B00012F1010211F101014FF0004143F100036B
:1014C00000F0004043EA00007047F9D35708D0E726
:1014D00046EA064613F1400F4FEA16461FDD13F1A8
:1014E000200FDFBF16430A46002120335B42BED0E7
:1014F000C3F1200746EA064602FA07F74FEA164606
:1015000046EA0706C3F1200722FA03F201FA07F7B9
:1015100021FA03F14FF0000342EA0702A7E746EA87
:10152000020646EA06464FEA164646EA0106BCBFF0
:1015300046EA0646360C4FF000034FF000024FF02B
:10154000000194E72DE9804C9A46934670B491E8E7
:10155000380007C831EA400C48BF34EA430C03D5D1
:10156000FFF7E6FDFFF780FFF0BCBDE8008C2DE93A
:10157000804C9A46934670B491E8380007C810F042
:10158000804F08BF13F0804F03D100F005F8FFF73C
:101590006BFFF0BCBDE8008C20F07F4780EA0300C1
:1015A00023F07F4C07EB0C03A3F57C5300F00040C5
:1015B000A3F1FE0392F0000F00F0B38095F0000F4E
:1015C00000F077802DE901494FEA11404FEA1446B7
:1015D00021EA004800FB06FC24EA064708FB06F661
:1015E00007FB08F800FB07F718EB06484CEB164C16
:1015F0004FEA124B18EB07484FEA15464CEB1740E1
:1016000022EA0B4E0BFB06FC25EA06470EFB06F60C
:1016100007FB0EFE0BFB07F71EEB064E4CEB164CC2
:101620004FF000061EEB074E4CEB174B18EB0B0868
:1016300040F1000018EB0E0B58EB000840F10000E1
:101640008F1A4FF000013CBFC943661B14BFB5EBB6
:10165000040C00213CBFC943F61B4FEA17444EEA75
:101660008E0E27EA04454FEA1C4704FB07622CEA6A
:10167000074C05FB07F70CFB05F604FB0CFC16EB0F
:10168000074642EB174216EB0C4642EB1C421BEBA3
:10169000060658EB0202414146EA9E0601D5BDE826
:1016A0000189B619524141EB0101A3F10103BDE8E3
:1016B00001894FEA14454FEA114724EA054621EA19
:1016C000074C05FB07F406FB07F70CFB06F105FBCF
:1016D0000CFC11EB074144EB17444FEA124711EBA6
:1016E0000C4144EB1C4422EA074C05FB07F206FBC5
:1016F00007F70CFB06F605FB0CFC16EB074642EB66
:10170000174216EB0C4642EB1C456A1854F10001D7
:1017100048BF7047B619524141EB0101A3F10103E3
:10172000704795F0000F37D04FEA11424FEA144747
:1017300021EA024624EA074C02FB07F106FB07F701
:101740000CFB06F402FB0CFC14EB074441EB1741C5
:101750004FEA154714EB0C4441EB1C4125EA074CBA
:1017600002FB07F506FB07F70CFB06F602FB0CFC79
:1017700016EB074645EB174516EB0C4645EB1C42AE
:10178000121951F1000148BF7047B619524141EB9F
:101790000101A3F1010370474FEA14454FEA1147D5
:1017A00024EA054621EA074C05FB07F106FB07F78B
:1017B0000CFB06F24FF0000605FB0CFC12EB074297
:1017C00041EB174112EB0C4251EB1C4148BF7047F3
:1017D000921841EB0101A3F1010370472DE9F04795
:1017E000074689469046DDF820C0002100220024EB
:1017F00000260025002004460246014645E000265A
:1018000001E0491C761C614502D2585C2028F8D0C2
:10181000614500D13BE0ACEB0100022807D3585CE6
:101820000D2804D1481C185C0A2800D12CE0585C13
:101830000A2800D128E01EB16FF02B00BDE8F08728
:10184000585C3D2806D1601C0446022802D96FF07E
:101850002B00F3E7585C7F2806DC585CDFF8E4A037
:101860001AF800007F2802D16FF02B00E6E7585CE1
:10187000DFF8D0A01AF80000402803DA14B16FF0A6
:101880002B00DBE7521C00BF491C6145B7D300BFEA
:101890001AB90020C8F80000D0E7D00800EB4000DB
:1018A0004FEA400A02F0070000EB40004000C01D74
:1018B0000AEBD002121B0FB1914504D2C8F80020E8
:1018C0006FF02900BAE703240020064602463D4691
:1018D00031E018780D2805D018780A2802D0187839
:1018E000202800D125E01878DFF858A01AF8000069
:1018F000402801D1012000E00020241A1878DFF8E8
:1019000044A01AF8000066F39F100646501C0246D9
:1019100004280DD1002214B1300C05F8010B012C64
:1019200002D9300A05F8010B022C01D905F8016B28
:1019300000BF491E5B1C0029CBD1E81BC8F8000082
:1019400000207BE704D000082DE9F04F07468946C8
:10195000099C00250026AC46A846AA4600211CB9D1
:1019600000201060BDE8F08F0320B4FBF0F04FF0D2
:10197000030BB4FBFBFE0BFB1E4BBBF1000F02D0B5
:101980004FF0010B01E04FF0000B00EB0B06B6F13E
:10199000804F05D34FF0FF3010606FF02900E1E772
:1019A000B600701C814500D327B9701C10606FF021
:1019B0002900D7E70320B4FBF0F000EB4006002538
:1019C000394629E013F801CB13F8018B13F801AB6A
:1019D0002D484FEA9C0B10F80B0001F8010B4FEA61
:1019E0000C1000EB281000F03F00DFF89CB01BF853
:1019F000000001F8010B4FEA880000EBAA1000F08C
:101A00003F001BF8000001F8010B0AF03F001BF833
:101A1000000001F8010BED1CB542D3D3A5422DD235
:101A200013F801CB681CA04202D213F8010B00E0AE
:101A3000002080461448CCF3850B10F80B0001F809
:101A4000010B4FEA0C1000EB281000F03F00DFF80C
:101A500038B01BF8000001F8010B681CA04207D247
:101A60003F2000EA88001BF8000001F8010B02E0AB
:101A70003D2001F8010B3D2001F8010BC81B10604F
:101A80000020087000BF6DE7C4CF000800BFFEE76C
:101A90007047000070B50446B3F5804F13D1D1E90B
:101AA000000540EA05108D6840EA05208D6928434D
:101AB0008D8940EA054054F82250064E35402843AF
:101AC00044F8220003E06FF0704044F82200002048
:101AD00070BD00000000F0CF70B50246086852F8F3
:101AE000200020F001000E6842F8260088680828CF
:101AF00001D1402300E00023486818438E6830433A
:101B0000CE6830430E6930434E693043CE6930436E
:101B10000E6A30434E6A30438E6A3043CE6A304399
:101B20000E6B40EA060488690443486B0443074D82
:101B300045F4806545F4E025086852F82000A84384
:101B400020430E6842F82600002070BD7FFB08008D
:101B500010B50346D1E9000440EA04108C6840EA5D
:101B600004208C8940EA0444088A401E44EA005458
:101B7000087D801E44EA00608C692043541C53F8A1
:101B8000244004F040442043541C43F82400002027
:101B900010BD000070B50446002594F8210002280D
:101BA00003D00420A0630125C1E02068006820F074
:101BB0000E00216808602068006820F0010021689C
:101BC00008605C492068884252D95A4978392068AF
:101BD000884201D1012047E0564964392068884293
:101BE00001D1102040E0534950392068884201D18A
:101BF000801539E04F493C392068884201D1801472
:101C000032E04C4928392068884202D14FF48030B4
:101C10002AE0484914392068884202D14FF48010E4
:101C200022E044492068884201D140041CE0424936
:101C30002068884201D1012016E03F491431206814
:101C4000884201D110200FE03B49283120688842AA
:101C500001D1801508E038493C312068884201D123
:101C6000801401E04FF480303349091F086051E0CF
:101C7000304978392068884201D1012047E02D4958
:101C800064392068884201D1102040E02949503948
:101C90002068884201D1801539E026493C39206806
:101CA000884201D1801432E02249283920688842D4
:101CB00002D14FF480302AE01E491439206888424E
:101CC00002D14FF4801022E01A492068884201D1E5
:101CD00040041CE018492068884201D1012016E028
:101CE000154914312068884201D110200FE01249B3
:101CF00028312068884201D1801508E00E493C3126
:101D00002068884201D1801401E04FF480300949F5
:101D100080394860012084F8210000BF002084F849
:101D2000200000BF606B10B12046616B88472846D9
:101D300070BD000080000240080402402DE9F84711
:101D4000024600239C467BE14FF0010808FA03F4A9
:101D5000D1F8008008EA0400A0427DD1DFF8F4A2A7
:101D6000D1F80480A8EB0A09D0453AD014DCB8F1C8
:101D7000030F50D009DCB8F1000F31D0B8F1010FDA
:101D80001CD0B8F1020F49D120E0B8F1110F18D0E2
:101D9000B8F1120F42D11EE0B9F5881F25D006DC3C
:101DA000B9F5803F20D0B9F5801F37D11AE0B9F5D9
:101DB000001F18D0B9F5041F30D117E0D1F80CC0BE
:101DC0002DE0D1F80C8008F1040C28E0D1F80C804B
:101DD00008F1080C23E0D1F80C8008F10C0C1EE08F
:101DE00000BF00BF00BF00BF00BF00BFD1F8088028
:101DF000B8F1000F02D14FF0040C0BE0D1F80880CD
:101E0000B8F1010F03D14FF0080C146102E04FF05C
:101E1000080C546103E04FF0000C00E000BF00BF6D
:101E2000FF2801D8904601E002F104084646FF2849
:101E300002D84FEA830803E0A3F108084FEA8808B4
:101E40004746D6F800804FF00F0909FA07F928EA4B
:101E500009080CFA07F900E07AE048EA0908C6F830
:101E60000080D1F8048008F08058B8F1805F6FD10D
:101E700000BFDFF8E481D8F8188048F00108DFF8E7
:101E8000D891C9F81880C846D8F8188008F0010819
:101E9000CDF8008000BF00BF4FEAB9384FEA930980
:101EA00058F829504FEA83784FEA18794FF00F0815
:101EB00008FA09F825EA0805DFF8A081424502D1B1
:101EC0004FF0000824E0DFF89881424502D14FF03E
:101ED00001081DE0DFF88C81424502D14FF0020875
:101EE00016E0DFF88481424502D14FF003080FE08D
:101EF000DFF87881424502D14FF0040808E0DFF8AE
:101F00007081424502D14FF0050801E04FF006080C
:101F10004FEA83794FEA197908FA09F848EA050582
:101F2000DFF850814FEA930948F82950D1F804802E
:101F300008F48038B8F5803F0BD1DFF83C81D8F841
:101F4000008048EA0008DFF83091C9F800800AE014
:101F500075E0DFF82481D8F8008028EA0008DFF86F
:101F60001891C9F80080D1F8048008F40038B8F559
:101F7000003F0ED1DFF8008108F10408D8F8008096
:101F800048EA0008DFF8F09009F10409C9F8008078
:101F90000DE0DFF8E48008F10408D8F8008028EAB2
:101FA0000008DFF8D49009F10409C9F80080D1F8DD
:101FB000048008F48018B8F5801F0ED1DFF8B880CF
:101FC00008F10808D8F8008048EA0008DFF8A8906F
:101FD00009F10809C9F800800DE0DFF89C8008F1DC
:101FE0000808D8F8008028EA0008DFF88C9009F18A
:101FF0000809C9F80080D1F8048008F40018B8F581
:10200000001F0ED1DFF8708008F10C08D8F80080AE
:1020100048EA0008DFF8609009F10C09C9F800806F
:102020000DE0DFF8548008F10C08D8F8008028EAA9
:102030000008DFF8449009F10C09C9F800805B1C26
:10204000D1F8008028FA03F8B8F1000F7FF47CAED5
:10205000BDE8F887000011100010024000080140A0
:10206000000C014000100140001401400018014024
:10207000001C014008000140000401400246936832
:102080000B400BB1012000E0002070470AB1016154
:1020900001E00B04036170470148006870470000CD
:1020A0009400002010B50848006840F01000064970
:1020B0000860052000F080F80F2000F007F800F01D
:1020C0002BF8002010BD00000020024070B504462F
:1020D0000E4800784FF47A71B1FBF0F00C490968B2
:1020E000B1FBF0F5284600F0A9FE08B1012070BD53
:1020F000102C07D200222146501E00F01EF8054881
:10210000046001E00120F2E70020F0E79C000020DD
:102110000000002098000020704701460846002873
:1021200009DB00F01F0301229A4043099B0003F1E1
:10213000E023C3F8002100BF70472DE9F05F80461F
:102140000D461646002701F089FD074639462A4606
:10215000334601F00700C0F1070ABAF1040F02D9B3
:102160004FF0040A01E0C0F1070AD14600F1040A69
:10217000BAF1070F02D24FF0000A01E0A0F1030A02
:10218000D4464FF0010A0AFA09FAAAF1010A0AEA4A
:10219000020A0AFA0CFA4FF0010B0BFA0CFBABF136
:1021A000010B0BEA030B4AEA0B042146404601F0FF
:1021B0005DFDBDE8F09F000000BF00F00702064B88
:1021C00019684FF6FF031940044B0B4343EA022101
:1021D000014B196000BF70470CED00E00000FA05EC
:1021E00070B504460D460CB9012070BD5A48006810
:1021F00000F00700A8420ED25748006820F0070000
:102200002843554908600846006800F00700A842C6
:1022100001D00120E9E7207800F0020002281DD15A
:10222000207800F00400042805D14C48406840F4B0
:10223000E0604A494860207800F00800082805D18D
:102240004648406840F4605044494860434840680C
:1022500020F0F000A168084340494860207800F071
:10226000010078B36068012806D13C48006800F49A
:10227000003090B90120B8E76068022806D13748DD
:10228000006800F0007040B90120AEE733480068F4
:1022900000F0020008B90120A7E73048406820F0AC
:1022A0000300616808432D494860FFF7F5FE0646C4
:1022B00009E0FFF7F1FE801B41F28831884202D924
:1022C000032092E707E02548406800F00C006168B1
:1022D000B0EB810FEDD12048006800F00700A84264
:1022E0000ED91D48006820F0070028431A490860ED
:1022F0000846006800F00700A84201D0012074E7FA
:10230000207800F00400042807D11448406820F425
:10231000E060E168084311494860207800F0080057
:10232000082808D10D48406820F46050216940EA2F
:10233000C1000A49486000F03FF808494968C1F304
:102340000311074A515CC840064908600648006806
:10235000FFF7BCFE002048E70020024000100240CA
:1023600012A000080000002098000020014800682A
:10237000704700000000002000B5FFF7F7FF044998
:102380004968C1F30221034A515CC84000BD000006
:102390000010024022A0000800B5FFF7E7FF044943
:1023A0004968C1F3C221034A515CC84000BD000026
:1023B0000010024022A00008F0B585B00FF26C0CAE
:1023C0009CE8E01001A8A0E8E0101CA52D6800958D
:1023D00000210022002300240020194D696801F02B
:1023E0000C05F5B1042D02D0082D19D101E01548D6
:1023F00019E001ADC1F38346AC5D01F4803555B100
:102400000F4D6D68C5F340451DF805200D4D654322
:10241000B5FBF2F302E00C4D04FB05F3184602E0B5
:1024200000BF084800BF00BF05B0F0BD02030405AF
:10243000060708090A0B0C0D0E0F10100102000010
:102440000010024000127A0000093D00F8B5044671
:102450000CB90120F8BD207800F00100002878D0E8
:10246000F848406800F00C0004280CD0F54840689B
:1024700000F00C00082811D1F248406800F48030C8
:10248000B0F5803F0AD1EF48006800F40030002822
:102490005FD0606800285CD10120DBE700BF606886
:1024A000B0F5803F06D1E748006840F48030E54948
:1024B000086028E0606858B9E248006820F480307D
:1024C000E04908600846006820F4802008601AE0AF
:1024D0006068B0F5A02F0BD1DA48006840F4802086
:1024E000D84908600846006840F4803008600AE077
:1024F000D448006820F48030D2490860084600685B
:1025000020F48020086000BF606888B1FFF7C4FD38
:10251000054606E0FFF7C0FD401B642801D90320F3
:1025200098E7C848006800F400300028F2D010E0B6
:10253000FFF7B2FD054606E0FFF7AEFD401B64283D
:1025400001D9032086E7BF48006800F40030002866
:10255000F2D1207800F00200022857D1B948406833
:1025600000F00C0050B1B748406800F00C0008289B
:1025700018D1B448406800F4803098B9B148006878
:1025800000F0020020B12069012801D0012061E79C
:10259000AC48006820F0F800616940EAC100A94930
:1025A000086033E02069E8B10120A7490860FFF71F
:1025B00073FD054606E0FFF76FFD401B022801D9B9
:1025C000032047E79F48006800F002000028F2D08F
:1025D0009C48006820F0F800616940EAC100994910
:1025E000086013E0002098490860FFF755FD054694
:1025F00006E0FFF751FD401B022801D9032029E71F
:102600009048006800F002000028F2D1207800F025
:10261000080008282DD1A069B8B101208B490860B5
:10262000FFF73AFD054606E0FFF736FD401B02289E
:1026300001D903200EE78348406A00F00200002819
:10264000F2D0012001F02AF913E000207F49086050
:10265000FFF722FD054606E0FFF71EFD401B02289E
:1026600001D90320F6E67748406A00F0020000280E
:10267000F2D1207800F00400042873D100277148BB
:10268000C06900F0805070B900BF6E48C06940F06A
:1026900080506C49C8610846C06900F080500090C5
:1026A00000BF00BF01276A48006800F48070B0B91D
:1026B0006748006840F4807065490860FFF7ECFCEB
:1026C000054606E0FFF7E8FC401B642801D903201B
:1026D000C0E65F48006800F480700028F2D000BFB8
:1026E000E068012806D15748006A40F001005549CA
:1026F000086227E0E06858B95248006A20F00100FB
:10270000504908620846006A20F00400086219E097
:10271000E06805280BD14B48006A40F004004949A5
:1027200008620846006A40F0010008620AE0454875
:10273000006A20F00100434908620846006A20F060
:102740000400086200BFE068A0B1FFF7A5FC0546E1
:1027500009E0FFF7A1FC401B41F28831884202D911
:10276000032077E622E03748006A00F002000028E4
:10277000EFD012E0FFF790FC054608E0FFF78CFC75
:10278000401B41F28831884201D9032062E62D487E
:10279000006A00F002000028F0D1012F05D129487D
:1027A000C06920F080502749C86100BFE069C8B304
:1027B0002448406800F00C00082860D0E069022836
:1027C00048D1002020490866FFF766FC054606E070
:1027D000FFF762FC401B022801D903203AE61948A2
:1027E000006800F000700028F2D1206AB0F5803F48
:1027F00007D11448406820F40030A168084311490B
:102800004860D4E9080108430E49496821F474116D
:1028100008430C49486001200B490866FFF73CFC5F
:10282000054607E03DE0FFF737FC401B022801D9D1
:1028300003200FE60348006800F000700028F2D083
:102840002FE000000010024000004242800442429B
:1028500000700040002014490866FFF71DFC054683
:1028600006E0FFF719FC401B022801D90320F1E51F
:102870000E48006800F000700028F2D111E0E06915
:10288000012800D1E6E50948466806F48031206A4F
:10289000814204D106F47011606A814201D00120A6
:1028A000D8E50020D6E500000000424200100240BA
:1028B00010B504460CB9012010BD606A38B96068D3
:1028C000B0F5827F00D105E00021E16102E0002146
:1028D00021616161A06AB0F5005F00D100BF94F88A
:1028E000510028B9002084F85000204600F04AF832
:1028F000022084F851002068006820F04000216820
:102900000860A08800F48270218901F40441084322
:10291000A18901F400610843217C01F00201084310
:10292000217D01F001010843218B01F4007108436E
:10293000217F01F0380108432021095D01F0800169
:102940000843218D01F400510843216808600421E7
:10295000A06901EA104021684860A06AB0F5005FF4
:1029600003D1A08D80B2216808612068C06920F47D
:1029700000602168C86100206065012084F8510072
:10298000002099E710B586B00446264920688842A1
:1029900045D100BF00BF2448806940F004002249AF
:1029A00088610846806900F00400019000BF00BF04
:1029B00000BF00BF00BF0846806940F00400886186
:1029C0000846806900F00400019000BF00BF00BF0E
:1029D00000BF00BF0846806940F0040088610846D7
:1029E000806900F00400019000BF00BF00BF2020FC
:1029F000029002200390012004900320059002A978
:102A00000A48FFF79BF94020029002A90748FFF708
:102A100095F98020029002A90448FFF78FF906B0CB
:102A200010BD0000003001400010024000080140CD
:102A30002DE9FF5F0446884691461D460E9E012003
:102A400002900020019000BF94F85000012803D1AB
:102A5000022004B0BDE8F09F012084F8500000BFC0
:102A6000FFF71AFB074694F851B060680390AA4636
:102A7000BBF1010F0BD00398B0F5827F04D1A068A1
:102A800010B9BBF1040F02D0022001903DE1B8F172
:102A9000000F03D0B9F1000F00D015B9012001904B
:102AA00033E194F85100042802D0052084F8510045
:102AB00000206065C4F83890E587A587C4F83080A9
:102AC000E586A58620646064A06AB0F5005F0DD13C
:102AD00000BF2068006820F400502168086020686A
:102AE000006840F400502168086000BF206800685A
:102AF00000F04000402805D02068006840F0400009
:102B000021680860E068B0F5006F56D1606810B1C8
:102B1000BAF1010F09D1206B00882168C860206BD1
:102B2000801C2063E08E401EE0863FE020688068C5
:102B300000F0020002281CD1E08ED0B102980128DA
:102B400017D1206B00882168C860206B801C20632F
:102B5000E08E401EE08600200290E08E48B9A06A18
:102B6000B0F5005F05D12068006840F4805021680E
:102B700008602068806800F0010068B1E08F58B1FB
:102B80002068C068A16B0880A06B801CA063E08FE8
:102B9000401EE08701200290FFF77EFAC01BB04282
:102BA00004D3701C10B103200190AEE0E08E002829
:102BB000BCD1E08F0028B9D156E0606810B1BAF1FD
:102BC000010F09D1206B007821680873206B401C2D
:102BD0002063E08E401EE08640E02068806800F0C0
:102BE000020002281CD1E08ED0B10298012817D132
:102BF000206B007821680873206B401C2063E08EF6
:102C0000401EE08600200290E08E48B9A06AB0F530
:102C1000005F05D12068006840F48050216808609A
:102C20002068806800F0010068B1E08F58B120682A
:102C3000C068A16B0870A06B401CA063E08F401EB1
:102C4000E08701200290FFF727FAC01BB04201D3B2
:102C5000701C00B916B90320019056E0E08E0028E0
:102C6000BBD1E08F0028B8D1A06AB0F5005F10D1C9
:102C70003346012211462046009700F03BFE30B15A
:102C8000606D40F002006065032001903DE0206827
:102C9000C06820688068C0F30010E8B1204600F0EA
:102CA00025FE012814D1606D40F00200606500BF70
:102CB0002068006820F400502168086020680068DF
:102CC00040F400502168086000BF0120019003E03B
:102CD0004FF6EF70216888603A463146204600F092
:102CE000F1FD20B101200190202060650DE0A06879
:102CF00050B900BF002000902068C0680090206894
:102D00008068009000BF00BF00BF012084F8510020
:102D100000BF002084F8500000BF019899E670B50C
:102D200004460E4615461CB1A069B0F5807F01D15E
:102D3000012070BD94F8410028B9002084F84000BB
:102D4000204600F01FF804F108012068FEF7C4FED9
:102D50003146A2682068FEF7FBFE2946236BD4E9C2
:102D60000102FEF797FEA168206850F8210040F0AC
:102D70000100A268216841F82200012084F8410086
:102D80000020D6E710B586B0044600BF1E48406953
:102D900040F480701C4948610846406900F4807026
:102DA000019000BF00BF00BF0846806940F02000CE
:102DB00088610846806900F02000019000BF00BFD4
:102DC00000BF0846806940F040008861084680697D
:102DD00000F04000019000BF00BF4CF20370029071
:102DE00002200390012004900320059002A90748C7
:102DF000FEF7A4FF4FF68070029002A90448FEF788
:102E00009DFF06B010BD00000010024000140140FC
:102E100000180140042808D14FF0E021096941F071
:102E200004014FF0E022116107E04FF0E021096951
:102E300021F004014FF0E0221161704770B50446A3
:102E40002546681EB0F1807F01D301200FE0681E87
:102E50004FF0E02148610F214FF0FF3000F006FFF6
:102E600000204FF0E021886107200861002070BD3C
:102E7000704700002DE9F047044620680568206887
:102E8000C668206847694FF00008C14605F00F0882
:102E9000B8F1000F0AD105F0200038B106F020008B
:102EA00020B1204600F0BEFDBDE8F087B8F1000F6C
:102EB00071D007F0010018B906F4907000286AD0AC
:102EC00005F0010030B106F4807018B1E06B40F0FD
:102ED0000100E06305F0040030B107F0010018B113
:102EE000E06B40F00200E06305F0020030B107F053
:102EF000010018B1E06B40F00400E06305F0080049
:102F000048B106F0200010B907F0010018B1E06BDD
:102F100040F00800E063E06B68B305F0200028B1E2
:102F200006F0200010B1204600F07CFD20684069CA
:102F3000C0F38019E06B00F0080010B9B9F1000F80
:102F400022D0204600F04EFD2068406900F040008D
:102F5000B0B12068406920F0400021684861606B92
:102F600050B11848616B4863606BFEF713FE10B1F7
:102F7000606B416B88470CE02046FFF779FF08E063
:102F80002046FFF775FF04E02046FFF771FF0020A1
:102F9000E06389E7FFE705F0800030B106F08000CC
:102FA00018B1204600F00CFE7EE705F0400030B17D
:102FB00006F0400018B1204600F024FD74E700BF81
:102FC00072E70000D139000810B504460CB90120A1
:102FD00010BDA06900B100E000BF94F8390028B925
:102FE000002084F83800204600F028F8242084F8D7
:102FF00039002068C06820F400502168C86020466D
:1030000000F060FD2068006920F4904021680861AC
:103010002068406920F02A00216848612068C06863
:1030200040F400502168C8600020E063202084F84C
:10303000390084F83A000020CAE7000010B586B0D5
:1030400004462849206888424AD100BF00BF26486C
:10305000806940F00400244988610846806900F0D6
:103060000400019000BF00BF00BF00BF00BF0846C2
:10307000806940F0040088610846806900F004001F
:10308000019000BF00BF00BF00BF00BF08468069BD
:1030900040F4804088610846806900F480400190D7
:1030A00000BF00BF00BF481502900220039001201E
:1030B00004900320059002A90C48FEF73FFE4FF450
:1030C000806002900020039002A90848FEF736FEB7
:1030D0002520FFF722F8032211462520FFF72DF8BF
:1030E00006B010BD00380140001002400008014049
:1030F00010B5034693F83A0020282FD101B10AB940
:10310000012010BD00BF93F83800012801D1022032
:10311000F7E7012083F8380000BF99629A85DA85C5
:103120000020D863222083F83A0000BF002083F8F3
:10313000380000BF1868C06840F480701C68E06008
:103140001868406940F001001C6860611868C06838
:1031500040F020001C68E0600020D2E70220D0E7A9
:1031600010B504462049206888423BD11F4800889A
:1031700000F4004088BB1D48008800F4804070B116
:103180001B4800780A2803D000201849088024E052
:103190001648008840F40040144908801DE0144897
:1031A00000780D2806D11148008840F480400F496E
:1031B000088012E00E4800780C490988C1F30D011F
:1031C0000C4A505409480088401C084908800846A9
:1031D0000088C72801DD0020088001220449064834
:1031E000FFF786FF10BD000000380140900000206E
:1031F00092000020C808002090090020704700BFFE
:10320000FEE72DE9FF4704460D4616469946002085
:103210000390029600278046009002A805F0BEFFAA
:103220008DF80C000398C0F30310022800D01FE0B3
:1032300001A9029800F0EAF8804602990844029039
:10324000DDE9011047180298381A022800DA0FE069
:1032500002A805F0A3FF8DF80000009800F001001F
:10326000207002A805F09AFF28704FF0010800BFF7
:10327000404604B0BDE8F0872DE9FF5F06460C46E6
:1032800017469846DDE90FABDDF838900020039033
:1032900011980290002500200190009002A805F0EE
:1032A0007DFF8DF80C000398C0F30310032800D0B5
:1032B00032E00398C0F3C00030700398C0F34100BF
:1032C0002060039800F0010038706946029800F011
:1032D0009DF80190029908440290009902984518BF
:1032E0002A4602A9484605F06DFF10B10298281A37
:1032F00000D511E02068002804DD02A805F055FF84
:10330000A8F800000298281ACBF800000298CAF822
:1033100000000120019000BF019804B0BDE8F09FBB
:103320002DE9FE4F05460E4614461F46DDE90C9B6F
:1033300000200290CDF804908046824601A805F056
:103340002DFF8DF808000298C0F30310092800D063
:103350002CE06946019800F059F88246019908442A
:103360000190DDE9001000EB01080198A8EB0000D6
:10337000022800DA1AE001A805F017FF28800020D3
:1033800020600DE02068B04202DD4FF0FF3A0DE012
:1033900001A805F003FF2268511C216047F82200B4
:1033A00001984045EED34FF0010A00BF5046BDE8FA
:1033B000FE8F2DE9F84305460C4601260027002024
:1033C000206000BF4FF0FF38781C0746042801DD5D
:1033D00000BF17E001216846A8478046B8F1010FF9
:1033E00000D00FE09DF8001001F07F01206801FB84
:1033F00006002060F6019DF8000000F08000002823
:10340000E0D100BF3846BDE8F883000070B504463F
:103410000D460348046029460248FFF7CAFF70BD05
:10342000C4000020A93C000830B50246002300BFBC
:103430000846CD1701EB5565ED11A1EBC515ECB2B2
:10344000CD1701EB5565E911002901DD44F0800439
:1034500018465B1C14540029EADC184630BD0000F5
:10346000401C802801DA401C0AE0B0F5804F01DAE8
:10347000801C05E00349884201DAC01C00E0001D01
:1034800070470000FFFF1F002DE9FC4104460F4676
:1034900015464FF0FF3800200190002600900121D2
:1034A0002046A847012800D01EE00126694628468C
:1034B000FFF77FFF601C0099FFF7B6FF06440098F6
:1034C0003044B84200DD0FE0009830B1A0190099F7
:1034D000A8470099884200D006E020788DF80400C3
:1034E0000198C0F3031800BF4046BDE8FC8100000E
:1034F0002DE9FE4305460E46144602950020019034
:10350000009000274FF0FF38204600F0A5F807464E
:103510008146FFF7A5FFB04202DD6FF001088FE0A2
:1035200000208DF80400019820F0F0001030019088
:103530009DF8041002A806F06DF939460298FFF7CD
:1035400073FF029908440290207A042808D13EA112
:1035500002A806F04BF9042102A806F05BF907E087
:103560003BA102A806F042F9032102A806F052F995
:1035700000208DF80000A17E009861F341000090CA
:10358000E07E08B1012100E00021009861F3820093
:1035900000900098C0F3800058B194F83D10009856
:1035A00061F3C400009094F83C10009861F345105A
:1035B0000090206C08B9A06C20B1009820F0800029
:1035C00080300090E06C08B9606D20B1009820F068
:1035D0004000403000909DF8001002A806F01AF953
:1035E000218B02A806F01CF902A8D4E90423E168A3
:1035F00006F02EF9E07E58B102A8D4E90A23616AE8
:1036000006F026F902A8D4E90D23216B06F020F973
:103610000098C0F3C01028B102A8D4E91123216C8E
:1036200006F016F90098C0F3801028B102A8D4E97A
:103630001423E16C06F00CF90298A0EB050800BF1A
:103640004046BDE8FE8300004D5154540000000088
:103650004D5149736470000070B504460025207A0E
:10366000032801D10C2503E0207A042800D10A2583
:10367000D4E90412E06800F002F9801C0544E07E01
:1036800068B1D4E90A12606A00F0F9F8861CD4E93E
:103690000D12206B00F0F3F83044801C0544206CC0
:1036A00008B9A06C30B1D4E91112206C00F0E7F831
:1036B000801C0544E06C08B9606D30B1D4E9141287
:1036C000E06C00F0DCF8801C0544284670BD2DE954
:1036D000F04F87B005460F4690461C46DDE915B60B
:1036E000DDE9109A0695002005900490039000965D
:1036F000204612A90EC900F042F804900290FFF78C
:10370000AFFEB84203DD6FF00100039033E005988F
:1037100020F0F00030300590059868F3C300059064
:10372000059864F342000590059869F30000059040
:103730009DF8141006A806F06DF804990698FFF796
:1037400073FE06990844069006A812A90EC906F051
:103750007FF8002C03DD514606A806F061F83246DA
:1037600059460698FCF785FF06983044069006985F
:10377000401B039000BF039807B0BDE8F08F7FB5F2
:103780000546089E002401A807C800F078F8801CB0
:1037900030440444002D00DDA41C204604B070BD5C
:1037A0002DE9FF5F05460E4617469846DDE90E9A5D
:1037B0000395002002900190009000245146484655
:1037C00000F046F883460190FFF74AFEB04202DD62
:1037D000A01E009038E000208DF80800029820F02C
:1037E000F00080300290029867F3C30002900298C4
:1037F00020F00600801C02909DF8081003A806F037
:1038000009F801990398FFF70FFE03990844039004
:10381000414603A806F004F800240FE004EB44003E
:103820000AEB800C03A89CE80E0006F011F8109833
:1038300010F8241003A805F0EDFF641C4C45EDDBE7
:103840000398401B009000BF009804B0BDE8F09FB3
:103850002DE9F04105460E46022700240AE004EB5C
:10386000440006EB800393E8070000F008F8C01C52
:103870000744641CAC42F2DB3846BDE8F08137B542
:103880000024009820B10098FCF7C8FE044600E030
:10389000019C20463EBD00BFFEE7704708B50849C1
:1038A0000968C9084FF47A72B1FBF2F14143009103
:1038B00000BF00BF00994A1E00920029F9D108BD3F
:1038C00000000020F8B504460D4616462B4600229F
:1038D00080212046009600F00DF828B1606D40F080
:1038E000200060650320F8BD0020FCE701460120B0
:1038F000704700002DE9F84F04460D4690461E46DD
:10390000DDF82890FEF7C8FBA0EB0900371AFEF798
:10391000C3FB82462C480068C0F3CB30784300904C
:1039200045E0701C002842D0FEF7B6FBA0EB0A0071
:10393000B84200D2A7BB2068406820F0E0002168B0
:1039400048606068B0F5827F0DD1A068B0F5004F87
:1039500003D0A068B0F5806F05D12068006820F022
:10396000400021680860A06AB0F5005F0DD100BF7B
:103970002068006820F40050216808602068006812
:1039800040F400502168086000BF012084F8510015
:1039900000BF002084F8500000BF0320BDE8F88F6E
:1039A000FFE7009800B900270098401E00902068AB
:1039B00080682840A84201D1012000E00020404555
:1039C000AFD10020EAE700000000002070477047F8
:1039D00070B505466C6A0020E085E0842046FFF75C
:1039E00047FA70BD0168C96821F490710268D1601E
:1039F0000168496921F0010102685161202180F8C4
:103A00003A10704710B504462068C06820F04000A6
:103A10002168C860202084F839002046FFF7EEFBBB
:103A2000002010BD70B5044694F83A00222847D112
:103A3000A068B0F5805F0CD1206950B90025A66A56
:103A400020684068C0F308003080A06A801CA06233
:103A500015E0A56A0026A068B0F5805F03D0A068D5
:103A600028B9206918B920684068287004E02068E7
:103A7000406800F07F002870A06A401CA062E08DC2
:103A8000401E80B2E085C8B92068C06820F02000E0
:103A90002168C8602068C06820F480702168C86010
:103AA0002068406920F0010021684861202084F8E6
:103AB0003A002046FFF754FB002070BD0020FCE7D1
:103AC0000220FAE770B504462168096921F44051E3
:103AD000E2681143226811612269A1681143626999
:103AE00041EA02052168C96841F20C629143294309
:103AF0002268D1602168496921F44071A2691143AB
:103B0000226851612D4A2168914202D1FEF744FC9E
:103B100001E0FEF731FC00EBC00101EB001162682F
:103B20009200B1FBF2F100EBC00202EB00126368FD
:103B30009B00B2FBF3F26423B2FBF3F202EBC2038D
:103B400003EB0212A1EB8201322202EB011164228B
:103B5000B1FBF2F101F0F00100EBC00202EB001248
:103B600063689B00B2FBF3F26423B2FBF3F201EB58
:103B7000021200EBC00101EB001163689B00B1FB76
:103B8000F3F100EBC00303EB00136668B600B3FB70
:103B9000F6F36426B3FBF6F303EBC30606EB03135D
:103BA000A1EB8301322303EB01116423B1FBF3F199
:103BB00001F00F0111442268916070BD003801408E
:103BC000014691F83900212828D18868B0F5805F36
:103BD0000BD1086948B90A6A1088C0F308000B685D
:103BE0005860086A801C086205E00B6A581C08626D
:103BF00018780B685860C88C401E80B2C88458B9C9
:103C00000868C06820F080000B68D8600868C06849
:103C100040F040000B68D860002070470220FCE7AD
:103C200010B50248FFF726F910BD000090090020EA
:103C300000BFFEE7490050EAC12018BF04204A0D2A
:103C400018BF40F0010040F2FF72B2EB515F08BFB5
:103C500040F00200012808BF0520704702480068B4
:103C6000C0F30220704700000CED00E010B5002802
:103C700004DB0A07130E054A135406E00A07140E64
:103C8000034A00F00F031B1FD45410BD00E400E0F2
:103C900018ED00E030380A2801D2012070470020DA
:103CA000704700BF7047000010B50246002309E0CE
:103CB000064800680078107004480068401C034CF7
:103CC00020605B1C8B42F3DB084610BDC400002063
:103CD00070B50546002600243D2001F04DFB284626
:103CE00001F060FB012251020B48FEF7CFF90FE013
:103CF000052001F087FC00F011FC0446102C00D0D8
:103D000007E03046711CCEB2C82801DDFA2070BD34
:103D1000EEE700BF2046FAE70020014070B50446F8
:103D2000062001F029FB204601F03CFB00F008FFD3
:103D30000546012251020248FEF7A8F9284670BD47
:103D40000020014010B5192001F016FB022001F0FF
:103D500075FC00F0F5FE044600F0F2FE04EB0020D6
:103D600084B2012251020248FEF790F9204610BDAC
:103D70000020014010B5262001F0FEFA00F0E0FE20
:103D80000446012251020248FEF780F9204610BD88
:103D90000020014070B50446282001F0EDFA00250E
:103DA00005E000F0CDFE04F8010B681CC5B2082D3B
:103DB000F7DB012251020248FEF768F970BD0000EE
:103DC0000020014010B5012001F0D6FA00F0B8FE45
:103DD0000446012251020248FEF758F9204610BD60
:103DE0000020014070B500250024272001F0C4FA0E
:103DF000012251020B48FEF749F90FE00A2001F0B9
:103E000001FC00F08BFB0446102C00D007E0284694
:103E1000691CCDB2C82801DDFA2070BDEEE700BFF5
:103E20002046FAE70020014010B5052001F0A4FA71
:103E3000012251020148FEF729F910BD002001407E
:103E400070B50446232001F097FA002505E014F828
:103E5000010B01F0A7FA681CC5B2042DF7DB0122A3
:103E600051020248FEF712F970BD00000020014027
:103E700070B50446222001F07FFA002505E014F811
:103E8000010B01F08FFA681CC5B2042DF7DB01228B
:103E900051020248FEF7FAF870BD00000020014010
:103EA00070B50446212001F067FA002505E014F8FA
:103EB000010B01F077FA681CC5B2062DF7DB012271
:103EC00051020348FEF7E2F8642001F09BFB70BD4D
:103ED0000020014070B50446242001F04DFA002571
:103EE00005E014F8010B01F05DFA681CC5B2042D61
:103EF000F7DB012251020248FEF7C8F870BD00004E
:103F000000200140E4B001F029F801F063FA00BF9D
:103F100001F04EFAE14880780228F9D00220E04909
:103F20000870002048700846DE490968C0F8031090
:103F3000DD4909684163DD4909688163DC49096835
:103F4000C163DC490A6802648988A0F8441040F221
:103F50005B70D349088141F2883048810120887024
:103F6000D548C860C821CE480161D44981614FF469
:103F70008061C16101F048FAD1A207CA61AB07C3F1
:103F8000D24CA02139A8FCF70DFC0A21D048FCF73F
:103F900009FC3021CE480A30FCF7E2FB4121CC4835
:103FA0003A30FCF7DDFB1021C9487B30FCF7D8FB29
:103FB0003021C7488B30FCF7D3FBC6A1C448FCF7BF
:103FC00009FBC6A1C2480A30FCF704FBCFA1C048D8
:103FD0003A30FCF7FFFACFA1BD487B30FCF7FAFA84
:103FE000CFA1BB488B30FCF7F5FA0021A02239ABFA
:103FF000B7483A30CDE901320391009000F1510306
:104000002246B34961A804F071FFB1483A30D04963
:10401000C8603A38086439A8C864642008834FF03F
:10402000000939E19D48B0F8580201286CD1C9480F
:104030000078012868D1FCF7E1F80A2190FBF1F241
:1040400001FB120000F11F05284605F07DFFC24963
:10405000C861FCF7D3F80A2190FBF1F201FB120AC8
:10406000504605F032FD05464FF06632BB4B05F079
:1040700057FC07460022BA4B05F052FCCDE904017B
:1040800005F01CFCB4490862086A05F031FF0546DA
:104090000E46B149C86905F02BFF07463A460B4664
:1040A000B04907A8CDE90056FCF7F0F807A8FCF7DF
:1040B000B5FA8146ACA0B449086007A80A46CDE924
:1040C000050907CA02AB07C30120002103460A46BF
:1040D000CDE90010C8217848FFF7F9FA9E49086138
:1040E000084675490269002001F03AF99A490860CA
:1040F000084600680969884203D1A4A0FCF7BAF811
:1041000002E0A8A0FCF7B6F84FF47A7001F07AFA52
:104110009148007E0A2870D2DFE800F0A305248BC6
:1041200087A3A3A340778A4AC8216348FFF7E0F931
:1041300089490861084660490269002001F010F9C8
:1041400085490860084600680969884203D19AA039
:10415000FCF790F802E09CA0FCF78CF800207E4968
:1041600008767FE09DA0FCF785F8C823524A7A497B
:104170000D31481EFFF745F8012802D17648407BF3
:1041800028B17548417B9AA0FCF774F802E0A1A021
:10419000FCF770F808207049087663E0A3A07A491C
:1041A00008606D48143001221346CDE900210290C9
:1041B0000022C8214048FFF7F3FA67490861084622
:1041C0003D490269002001F0CBF8634908600846C8
:1041D00000680969884203D19CA0FCF74BF80DE008
:1041E0000020401C0A2804DB002001215A4A1176D5
:1041F00002E00821584A117634E032E000205649A6
:1042000008760120534908702CE0C8202A49524BF7
:1042100008331A1FCDE900100121981DFFF780F81F
:104220004D490860002008761CE000204A490876C5
:1042300018E0C82020498C4A8C4BCDE90132CDE9E9
:1042400003108B488B4B8C4A8C4900908C48FFF7AD
:1042500013F841490860854801688AA0FCF70AF80C
:1042600000E000BF00BF0D48B0F8580290B90C4AFA
:10427000D169D068894AFFF707F9374908600846CD
:104280000068002802DD084600780876012003490E
:10429000A1F8580201F08CF8C4E60000800A002062
:1042A00090050020160000200400002008000020D7
:1042B0000C00002010000020C80000209001002009
:1042C000323031382D31302D3331000000CF9D7424
:1042D0000C0800203336363030370000716C5775CB
:1042E0006457672F33414E4756514C6548476641E6
:1042F00075304568384A374357676F7A664F706C38
:104300006A492B4779386B3D000000004D515454E9
:1043100000000000363137373437393137000000BC
:104320005179784952694A4E51473577506D456DFC
:104330004D47593851475673525574495A4474562B
:1043400055474930654351315633413D0000000027
:104350001C00002074000020D007002066664B403F
:104360000000F03F54D10008247379732F333636A0
:104370003030372F4D5154542F64702F706F737439
:104380002F6A736F6E000000000800205055424CE9
:10439000495348205375636365737366756C6C7914
:1043A0000D0A00005055424C495348206661696C23
:1043B00065640D0A00000000B7A2CBCDC1ACBDD32F
:1043C000B1A8CEC40D0A0000B7A2CBCDC1ACBDD3FD
:1043D000B1A8CEC4CAA7B0DC0D0A0000BDF8C8EB76
:1043E000434F4E4E41434BD7B4CCAC0D0A000000B6
:1043F000556E61626C6520746F20636F6E6E6563CD
:10440000742C2072657475726E20636F646520254C
:10441000640D0A004D51545420697320636F6E631C
:104420006574204F4B210D0A00000000247379733E
:104430002F3336363030372F4D5154542F64702F70
:10444000706F73742F6A736F6E2F2B005355425326
:104450004352494245205375636365737366756CB7
:104460006C790D0A00000000780000207C0000201C
:10447000F407002080000020880000208400002035
:10448000820000206D6573736167652061727269D7
:10449000766564203A2025730D0A00004D5300080C
:1044A00070B505460026412000F066FF284600F062
:1044B00079FF012251020C48FDF7E8FD0FE01420BE
:1044C00001F0A0F800F02AF80446102C00D007E014
:1044D0003046711CCEB2C82801DDFA2070BDEEE76F
:1044E00000BF2046FAE700000020014010B5044656
:1044F00004B910BD214605A0FBF7BCFE05E0C820AD
:1045000001F080F8C82001F07DF8F8E74572726F7D
:10451000723A20253032580D0A00000010B52C20C8
:1045200000F02AFF00F00CFB044601225102024871
:10453000FDF7ACFD204610BD0020014010B5422023
:1045400000F01AFF00F0FCFA044601225102024872
:10455000FDF79CFD204610BD0020014070B50446CB
:10456000432000F009FF002505E000F0E9FA04F817
:10457000010B681CC5B2142DF7DB01225102024861
:10458000FDF784FD70BD0000002001402DE9F041E1
:1045900007460C4615460CB9BDE8F0813C2000F0FA
:1045A000EBFE384600F0FEFEE0B200F0FBFE20120B
:1045B00000F0F8FE012001F041F8002605E000F0CF
:1045C000BFFA28706D1C701C86B2A642F7DB012270
:1045D00051020248FDF75AFD00BFDDE7002001400F
:1045E00070B505463B2000F0C7FE284600F0DAFE15
:1045F00000F0A6FA044600F0A3FA04EB002084B20F
:10460000012251020248FDF741FD204670BD000025
:104610000020014070B50446302000F0ADFE204679
:1046200000F0C0FE022001F009F800F089FA05460A
:10463000012251020248FDF729FD284670BD000005
:104640000020014000B585B000BF00BF2B48806945
:1046500040F48070294988610846806900F48070C0
:10466000009000BF00BF00BF00BF00BF08468069C8
:1046700040F4807088610846806900F48070009082
:1046800000BF00BF00BF00BF00BF0846806940F008
:10469000200088610846806900F02000009000BF7B
:1046A00000BF00BF4815019001200490029001A9AD
:1046B0001348FDF743FB40200190002002900120A9
:1046C00003900320049001A90D48FDF737FB8020DB
:1046D000019001200290032004900120039001A981
:1046E0000848FDF72BFB012280210648FDF7CEFC90
:1046F000142000F087FF05B000BD0000001002404C
:10470000002001400014014070B5FFF79BFF04F04A
:10471000CFFE24482449C1F85C022448C1F8600255
:104720002348C1F86402022088706520FFF7F6FA7A
:1047300004469A2C04D01C48D0F85C1220468847C6
:10474000FFF772FB642000F05DFFFFF74BFB0546AF
:104750001548D0F85C122846884700BFFFF70AFBCF
:10476000114948700A465078D2F8601288470E48BE
:1047700040780128F2D0FFF725FB0B490870084666
:1047800001780CA0FBF776FD0120FFF789FE0446B7
:104790000548D0F85C12204688474FF47A7000F044
:1047A00031FF70BDED440008800A0020894A0008EE
:1047B000614B00084348333935564552203A20258D
:1047C00032780D0A0000000038B5FFF7BBFA044646
:1047D00004F0010010B14948FFF7DCFA04F00400CE
:1047E00020B1FFF7C7FA4549C91E487004F0080018
:1047F000002851D0FFF7A2FE0546002D43D13F48C7
:10480000FFF7ACFE3D48C01E807900903B48C01EBB
:1048100043790279C1783AA0FBF72CFD3748C01ED6
:10482000807A00903548C01E437A027AC1793BA055
:10483000FBF720FD3148C01E807B00902F48C01E32
:10484000437B027BC17A3CA0FBF714FD2B48C01EC2
:10485000807C00902948C01E437C027CC17B3DA027
:10486000FBF708FD2548C01E807D00902348C01E30
:10487000437D027DC17C3EA0FBF7FCFC00201F496C
:10488000C91E887007E001201C49C91E88703FA01E
:10489000FBF7F0FC00BF00BF04F0100010B10020D7
:1048A00000F0D6FB04F0200010B1012000F0D0FB96
:1048B00004F0400010B1022000F0CAFB04F08000B8
:1048C00010B1032000F0C4FB04F4807010B1042088
:1048D00000F0BEFB04F4007010B1052000F0B8FB3E
:1048E00004F4806010B1062000F0B2FB04F4006014
:1048F00010B1072000F0ACFB38BD0000830A002097
:1049000049503A253032642E253032642E2530321B
:10491000642E253032640D0A0000000047574950CC
:104920003A253032642E253032642E253032642E02
:10493000253032640D0A00004D61736B3A25303228
:10494000642E253032642E253032642E25303264B8
:104950000D0A0000444E53313A253032642E253082
:1049600032642E253032642E253032640D0A000068
:10497000444E53323A253032642E253032642E258F
:104980003032642E253032640D0A0000BEB2CCAC49
:104990004950D0C5CFA22E2E2E2E2E2E2E2E2E2EAC
:1049A0002E2E2E2E2E2E2E2E2E2E2E2E2E2E2E2E27
:1049B0002E2E2E2E2E2E2E2E2E2E2E0D0A000000E6
:1049C00010B50446582000F0D7FC204600F0EAFC61
:1049D00010BD10B50446562000F0CEFCE0B200F049
:1049E000E1FCC4F3072000F0DDFCC4F3074000F055
:1049F000D9FC200E00F0D6FC10BD10B5044657209F
:104A000000F0BAFCE0B200F0CDFCC4F3072000F0E7
:104A1000C9FCC4F3074000F0C5FC200E00F0C2FC46
:104A200010BD10B5C820FFF7CBFF43F69820FFF765
:104A3000D0FF43F69820FFF7E0FF10BD70B50546A4
:104A400000260024352000F097FC284600F0AAFC40
:104A5000012251020B48FDF719FB0FE0052000F081
:104A6000D1FDFFF75BFD0446102C00D007E0304677
:104A7000711CCEB2C82801DDFA2070BDEEE700BF80
:104A80002046FAE70020014010B50446042C12D05D
:104A900004DC012C07D0022C19D108E0082C0ED020
:104AA000102C14D10FE00FA0FBF7E4FB13E011A0D2
:104AB000FBF7E0FB0FE013A0FBF7DCFB0BE015A01E
:104AC000FBF7D8FB07E017A0FBF7D4FB03E019A026
:104AD000FBF7D0FB00BF00BF4FF47A7000F092FDEF
:104AE00010BD000050485920444953434F4E4E0DCD
:104AF0000A0000005048592031304D5F464C4C0DA3
:104B00000A0000005048592031304D5F48414C4662
:104B10000D0A0000504859203130304D5F464C4C52
:104B20000D0A0000504859203130304D5F48414C4B
:104B3000460D0A00504859204155544F0D0A0000B7
:104B400010B5FF2000F003F80446204610BD70B5F4
:104B50000446204604F0ECFC0546284670BD0000E3
:104B600070B500242AE19748407801282FD1954854
:104B7000807838B193488078012803D091488078B4
:104B8000022824D104EBC4018E48183010F83100FB
:104B900002281BD104EBC4028A49183101EBC2017F
:104BA0004878FFF795F80020FFF77AFC054685481E
:104BB000D0F85C1228468847012104EBC4028148E2
:104BC000183000F8321002207E498870F4E07D48E9
:104BD00040780128FAD004EBC4017A48183010F864
:104BE00031000128F2D177488078022814D1FFF7EC
:104BF0001BF9642000F006FDFFF7F4F8642000F0D4
:104C000001FD00F005FB0120FFF74AFC05466D4859
:104C1000D0F85C122846884700BF40216A48FDF75B
:104C20002DFA08B9FFF7D0FD664880780228F4D045
:104C300004EBC4016348183000EBC100807830B148
:104C4000012830D0022865D003287DD18FE004EB05
:104C5000C4025C48183000EBC200C11C204600F0C2
:104C6000E7F80221204600F01DF904EBC402554884
:104C7000183000EBC2000189204600F0FBF804EB7D
:104C8000C4025048183000EBC2004189204600F0B1
:104C90003FF92046FFF7D2FE05464A48D0F85C129D
:104CA0002846884780E0FFF7BCFE04EBC402454875
:104CB000183000EBC200C11C204600F0B9F80321F7
:104CC000204600F0EFF804EBC4023E48183000EB39
:104CD000C2000189204600F0CDF804EBC402394837
:104CE000183000EBC2004189204600F011F920463F
:104CF000FFF7A4FE05463348D0F85C1228468847E3
:104D0000204600F0D7FA05462E48D0F85C12284617
:104D1000884749E004EBC4022A48183000EBC2007F
:104D2000C11C204600F084F80321204600F0BAF8A8
:104D300004EBC4022348183000EBC200418920462E
:104D400000F0E6F8204600E01FE0FFF777FE05469A
:104D50001C48D0F85C1228468847204600F0D0FA5C
:104D600005461848D0F85C12284688471CE0012107
:104D7000204600F097F82046FFF760FE05461148F0
:104D8000D0F85C12284688470EE00321204600F048
:104D900089F804EBC4020B48183000EBC2004189CB
:104DA000204600F0B5F800BF00BF022104EBC402AA
:104DB0000448183000F83210601CC4B2072C7FF78A
:104DC000D2AE70BD800A0020002001402DE9F041E4
:104DD00007460D461446392000F0CEFA384600F05A
:104DE000E1FAE0B200F0DEFA201200F0DBFA002671
:104DF00005E015F8010B00F0D5FA701C86B2A6424A
:104E0000F7DB012251020248FDF740F9BDE8F081CD
:104E10000020014070B505460C46592000F0ACFA60
:104E2000284600F0BFFA204600F0BCFA70BD000032
:104E300070B505460C46312000F09EFA284600F079
:104E4000B1FA14F8010B00F0ADFA14F8010B00F000
:104E5000A9FA14F8010B00F0A5FA14F8010B00F000
:104E6000A1FA012251020248FDF710F970BD0000BD
:104E70000020014070B505460C46322000F07CFA57
:104E8000284600F08FFAE0B200F08CFA201200F011
:104E900089FA012251020248FDF7F8F870BD0000BE
:104EA0000020014070B505460C46342000F064FA3D
:104EB000284600F077FA204600F074FA01225102E9
:104EC0000148FDF7E3F870BD0020014070B50646CB
:104ED0000C461546522000F04FFA304600F062FAB8
:104EE000204600F05FFA284600F05CFA70BD70B50D
:104EF00006460C461546532000F03EFA304600F0B8
:104F000051FA204600F04EFA284600F04BFA70BDE8
:104F100070B505460C46332000F02EFA284600F006
:104F200041FAE0B200F03EFA201200F03BFA012212
:104F300051020248FDF7AAF870BD000000200140B0
:104F400070B505460C46512000F016FA284600F0D0
:104F500029FA204600F026FA70BD00000EB54FF485
:104F600078401DA120221346CDE900210290DC22C9
:104F70000A21084603F084FE4FF4784018A1182255
:104F80001346CDE900210290DC222F210A2003F0F4
:104F900077FE4FF4784016A110221346CDE9002188
:104FA0000290DC224C210A2003F06AFE14A0FBF7D9
:104FB00061F914A0FBF75EF91BA0FBF75BF91CA0DD
:104FC000FBF758F91EA0FBF755F90EA0FBF752F9B5
:104FD00014A0FBF74FF90EBD53544D3332000000BF
:104FE000434833393551204F6E654E45540000001B
:104FF00041544F4D40414C49454E54454B000000F3
:105000000A0000002A2A2A2A2A2A2A2A2A2A2A2A9E
:105010002A2A2A2A2A2A2A2A2A2A2A2A2A2A2A2AF0
:105020002A2A2A2A0D0A000053544D33320D0A0051
:10503000434833393551204F6E654E45540D0A00B3
:1050400041544F4D40414C49454E54454B0D0A008B
:105050002DE9F041044600262046FFF7DBFA05461D
:1050600005F00400002843D000206749A1F8580249
:105070002046FFF7B5FA04EBC4026349183101EB8F
:10508000C201C86104EBC4015F48183000EBC100E5
:10509000808B86B204EBC4015B48183000EBC10082
:1050A000314682692046FFF771FA002104EBC40201
:1050B0005548183000EBC2008069815504EBC402EA
:1050C0005148183000EBC200816950A0FBF7D2F8BC
:1050D00004EBC4014C48183000EBC100007D40F0E7
:1050E000040104EBC4024848183000EBC20001750B
:1050F00005F00800A0B101204349A1F8580204EBD3
:10510000C4014148183000EBC1008078012807D164
:1051100001212046FFF77EFE3C212046FFF710FFCD
:1051200005F01000D0B304EBC4023749183101EB8D
:10513000C2014878FFF782FC07463348D0F85C127A
:105140003846884704EBC4012F48183000EBC100F3
:105150008078012802D0022821D10FE004EBC4029C
:105160002949183101EBC201487800F0A3F807463D
:105170002548D0F85C123846884711E004EBC40299
:105180002149183101EBC201487800F0B9F807460F
:105190001D48D0F85C123846884701E004E000BFA3
:1051A00000BFC82000F02EFA05F0400048B304EB21
:1051B000C4011548183000EBC1008078012820D1C7
:1051C000C82000F01FFA04EBC4020F49183101EBAC
:1051D000C2014878FFF732FC07460B48D0F85C1252
:1051E0003846884704EBC4020749183101EBC20175
:1051F000487800F05FF807460348D0F85C1238465C
:105200008847BDE8F0810000800A00202573000077
:1052100010B5042200210846FFF758FE022204219F
:105220000020FFF764FE042206210120FFF74EFE56
:1052300002220A210120FFF75AFE04220C2102203B
:10524000FFF744FE022210211046FFF750FE042211
:1052500012210320FFF73AFE022216210320FFF756
:1052600046FE042218211046FFF730FE02221C21C0
:105270000420FFF73CFE04221E210520FFF726FE36
:10528000022222210520FFF732FE042224210620DB
:10529000FFF71CFE022228210620FFF728FE042229
:1052A0002A210720FFF712FE02222E210720FFF7F6
:1052B0001EFE10BD70B5054600260024372000F004
:1052C0005BF8284600F06EF8012251020B48FCF70B
:1052D000DDFE0FE0052000F095F9FFF71FF9044609
:1052E000102C00D007E03046711CCEB2C82801DD7A
:1052F000FA2070BDEEE700BF2046FAE7002001402B
:1053000070B5054600260024362000F035F8284602
:1053100000F048F8012251020B48FCF7B7FE0FE0FD
:10532000052000F06FF9FFF7F9F80446102C00D0C3
:1053300007E03046711CCEB2C82801DDFA2070BDEE
:10534000EEE700BF2046FAE70020014070B50546B1
:105350000C46A1B22A460020FFF718F9204670BD7E
:1053600070B505460E461446A2B2E8B23146FFF7C4
:105370002DFD204670BD000010B5044601225102EB
:105380000748FCF783FE00224FF400710448FCF745
:105390007DFE2046FFF7DBFB022000F033F910BD55
:1053A0000020014010B504462046FFF7D0FB10BD99
:1053B00010B540210548FCF761FE08B9FFF704FA73
:1053C0000349D1F86402804710BD0000002001406D
:1053D000800A002000200B498860487308618860BB
:1053E0000120087600200860012048610020087331
:1053F0004860C88100210348016200200149C8615A
:1054000070470000D007002070B504460CB900209A
:1054100070BD71488078002845D16F48C07884F805
:1054200020006D480179212001556B4841792220E7
:10543000015569488179232001556748C1792420A5
:1054400001556548017A84F82510417A84F82610C0
:10545000817A84F82710C17A282001555E48017BA3
:1054600084F82910417B84F82A10817B84F82B1062
:10547000C17B2C2001555848017C84F82D10417CBB
:1054800084F82E10817C84F82F10C17C30200155C7
:105490005148017D84F83110417D84F83210817DBE
:1054A00084F8331010E004F13400FEF7E1FC04F15D
:1054B0003800FEF7C5FC04F13C00FEF70BFDFEF7DB
:1054C00091FC0A2000F09EF804F14000FEF7E8FC91
:1054D000617801EBC1024049183101EBC20048225A
:1054E0002146FBF70BF9A07830B101281ED0022825
:1054F00041D003286CD15DE06078E11CFFF798FC97
:1055000060780221FFF7CEFC21896078FFF7B2FCBA
:1055100061896078FFF7FCFC6078FFF78FFA054639
:105520002D48D0F85C122846884751E0FFF779FAF9
:105530006078E11CFFF77CFC60780321FFF7B2FC88
:1055400021896078FFF796FC61896078FFF7E0FCBD
:105550006078FFF773FA05461F48D0F85C122846BA
:1055600088476078FFF7A6FE05461B48D0F85C1216
:10557000284688472CE06078E11CFFF759FC6078EA
:105580000321FFF78FFC61896078FFF7C1FC607829
:10559000FFF754FA05461048D0F85C1228468847B1
:1055A0006078FFF7ADFE05460B48D0F85C12284640
:1055B00088470DE060780121FFF774FC6078FFF701
:1055C0003DFA05460448D0F85C122846884700BFDB
:1055D00000BF01201CE70000800A002010B504462F
:1055E00000204FF0E0210861FDF714FC2046E11790
:1055F00004EB5171C1F3CF01014A118010BD0000CD
:105600008A00002070B504464FF47A7094FBF0F5E0
:1056100094FBF0F100FB114603E0074800F00EF8A0
:105620006D1E002DF9D12EB14FF47A7106FB01F0F9
:1056300000F004F870BD000040420F000146114A1E
:1056400012884A434FF0E0235A6100229A611A46B9
:10565000126942F001021A6100BF4FF0E0221069A6
:1056600000F001021AB100F48032002AF5D04FF0A8
:10567000E022126922F001024FF0E0231A610022B9
:105680009A6170478A00002000BF054A126802F044
:105690004002002AF9D0C2B2014B1B1D1A607047AC
:1056A00000380140F0B50446142C06DA01EA020580
:1056B00023EA010685EA060019E0282C04DA81EACB
:1056C000020787EA030012E03C2C0ADA01EA02052D
:1056D00001EA030787EA050602EA030787EA0600EC
:1056E00005E0502C03DA81EA020787EA0300F0BDE7
:1056F0002DE9F05FADF58E5D07460E469246984661
:105700000DF58050D0F8E89140254FF0360B5C2124
:10571000C0F8BC11002405E0002041F27C1169446E
:105720000855641C402CF7DBAE421FD0AE4210DDA2
:105730004A463146384603F079FD002406E019F860
:10574000040041F27C1169440855641C142CF6DBFA
:1057500016E0AE4214DA002405E0385D41F27C1117
:1057600069440855641CB442F7DB09E0002405E0F5
:10577000385D41F27C1169440855641CAC42F7DB8A
:1057800000240AE041F27C106844005D80EA0B00CE
:1057900041F23C1169440855641C402CF2DB0024A2
:1057A00006E041F23C106844005D1FA90855641CE6
:1057B000402CF6DB002406E01AF804101FAA04F1BE
:1057C00040001154641C4445F6DB08EB05014A46D1
:1057D0001FA803F02BFD00240DE041F27C11694469
:1057E000095D0DF58050D0F8BC01414041F2FC024A
:1057F0006A441155641C402CEFDB002406E041F2A2
:10580000FC006844005D0AA90855641C402CF6DBC6
:10581000002406E019F804100AAA04F1400011540B
:10582000641C142CF6DB4A4605F114010AA803F0A7
:10583000FDFC0DF58E5DBDE8F09F000001461429CA
:1058400001DA07480AE0282901DA064806E03C297F
:1058500001DA054802E0502900DA044870470000E8
:105860009979825AA1EBD96EDCBC1B8FD6C162CA72
:1058700000B585B000BF00BF3648806940F04000E9
:10588000344988610846806900F04000009000BFFC
:1058900000BF00BF00BF00BF0846806940F0400065
:1058A00088610846806900F04000009000BF00BF9A
:1058B00000BF00BF00BF0846806940F0400088611B
:1058C0000846806900F04000009000BF00BF00BFA4
:1058D00000BF00BF0846806940F0040088610846A8
:1058E000806900F00400009000BF00BF00BF1020DE
:1058F000019000200290012003900320049001A950
:105900001548FCF71BFA08200190002002900120A6
:1059100003900320049001A90F48FCF70FFA04201C
:10592000019000200290012003900320049001A91F
:105930000948FCF703FA01200190002002900220A0
:1059400003900320049001A90448FCF7F7F905B07F
:1059500000BD000000100240001801400008014096
:1059600070B5044600260948058840884543002153
:10597000084603F055F803F0FBF900BF02E00448C5
:105980000480761CAE42FAD370BD0000180A0020D5
:105990000008006C10B5044658488471002C58D19A
:1059A000F020564908804FF4A0704880084680884F
:1059B00045F21051884210D14FF430504F490881C0
:1059C0004FF4285048814FF42C5088814FF4F070E8
:1059D00008804FF4487048801AE04848808841F6B3
:1059E000631188420DD12C20444908812B20488125
:1059F0002A2088814FF4F07008804FF44870488066
:105A000006E02C203D4908812A2048812B208881EE
:105A10003A48808845F21031884205D0374880885E
:105A200047F29671884206D14FF4A070334908803E
:105A30004FF4F07048803148808849F6060188426A
:105A400058D14FF4F0702D4908804FF448704880C9
:105A500050E04FF4A07029490880F02048800846A3
:105A6000808845F21051884210D14FF430502349BC
:105A700008814FF4285048814FF42C5088814FF40E
:105A8000487008804FF4F070488020E01B48808800
:105A900041F66311884205D01848808849F606010E
:105AA00088420DD12C20154908812A2048812B20BD
:105AB00088814FF4487008804FF4F070488006E009
:105AC0002C200E4908812A2048812B2088810B48F0
:105AD000808845F21031884205D00848808847F216
